:0200000060C1DD
:100008000F930FB70F931F931F939F7F79F40A2FB6
:10001800102F0F70107F402E312E072F102F0F70CA
:10002800107F502E712E729466270AC0792E0AE02E
:10003800502E0C2F102F0F70107F402E312E60E2A3
:1000480032940FEF08BB12B317783395337031F43D
:100058006394072D0024001110640CC0313019F48A
:10006800052D106207C0323019F4032D106102C04B
:10007800042D1860609565FE16236095F3E0E2E6AE
:10008800E00F0027F01FC895009408BA12BB337020
:10009800A9F45A3559F4809B52D0819B7DD05527BD
:1000A800C39415E0C11611F4CA9456E48099819B53
:1000B80003C05AE5CC2402C053958824D03031F0CF
:1000C800002700001FEF0A95E1F718BB18EC611232
:1000D80030C0662483940CE3081531F4772319F4AF
:1000E800AA2311F04427992743954C3311F5442747
:1000F800A3950A2F0F700A30E1F4AA5FA036C9F45D
:10010800AA27733269F477274B2F4F700B2F02956C
:100118000F701AE0400F1A95E9F702E3401B09C077
:100128007395D03009F0DA95072F0F700A3009F46B
:100138007A5F2F911F910F910FBF0F91189593958B
:10014800913011F4C72F27C0923019F47C2FCA2F91
:1001580022C0933019F4AC2FCB2F1DC09430A1F4DA
:10016800BC2F00270EBBBDBBE29AE19A81D00138B3
:1001780011F4CAEA10C011270A3018F00A50105FAB
:10018800FBCF010FC02F07C0953019F4689428D011
:1001980002C0992744270895903021F4D030D0E048
:1001A80009F4D8E0C3950C2F0F700A3021F4CA5F08
:1001B800C03A09F4CC27913021F4C43241F4CC2759
:1001C80006C0923021F4C03611F4CC2700C008953F
:1001D800000000000000000000000A95C9F708951B
:1001E80001B30B7F16F00460929801BB089528E0D4
:1001F80011271695F894E894F3DF03E0E9DF689493
:10020800EFDF0AE0E5DF829910687894E9DF0BE414
:10021800DFDF2A9571F7089528E0F894E894E0DF85
:1002280005E010FF0AE5D4DF6894DADF78940AE580
:1002380010FF05E0CDDF16952A9579F708956894A3
:10024800CFDF0FEFC5DF829B0895F894E894C8DFED
:100258000AEFBEDF0AEFBCDF0AEFBADF6894C0DF3F
:1002680004E6B6DF00B302FB78940AEFB1DF089525
:10027800E6DF0EF10CECD0DF04E4CEDFF8941EE1EB
:100288002FEF0FEFA5DF2A95E1F71A95C9F77894B4
:10029800D6DF8EF00CECC0DF0EEBBEDFA8DF1F93BD
:1002A800A6DFA5DFA4DFA3DFA2DFA1DFA0DF9FDF3A
:1002B800C6DF0F91089501E808950FED0DBF08E717
:1002C80001BB0FEF08BB07BB03E309B908E00AB994
:1002D80007E3A01631F402E1201619F405EF901691
:1002E80089F007E3A02E02E1202E05EF902E442787
:1002F800AA277727CC27DD2700270EBBE09ABDB3B6
:10030800882491E0789400E808B911C098DF2EF4A9
:100318000FE71FD00FE71DD00FC01CEC7DDF1EEBD1
:100328007BDF65DF012F15D062DF012F12D087DF59
:100338001CEC72DF14E470DF10E120E00AEF48DF04
:100348002A95E1F71A95D1F7E1CF00E205BF889524
:10035800DCCF5D9BFECF0CB90895D781CECB995BDE
:060368005FC1DFDB0800AD
:00000001FF
