:020000005DC2DF
:04000A0097C1F9C0E1
:100200000F930FB70F931F932F9309ED02BF9F7F9B
:10021000A1F587FD10C00A2F102F0F70107F402E00
:10022000312E072F102F0F70107F502E712E7294C9
:10023000662732942DC0662700916400702E0B3023
:1002400069F000916000007F49F00295502E009106
:1002500060000F70302E0CE0402E1AC0009160003C
:10026000007F11F00295702E009160000F70502EEB
:100270000CE0302E0BE0402E0BC0792E0AE0502E01
:100280000C2F102F0F70107F402E312E60E2329411
:100290000FEF08BB12B317783395337031F46394C2
:1002A000072D0024001110640CC0313019F4052D05
:1002B000106207C0323019F4032D106102C0042D02
:1002C0001860609565FE16236095F5E0E2E9E00FA1
:1002D0000027F01FC895313049F4062D043630F45C
:1002E0009F7F21F487FD02C000E2002A009408BA33
:1002F00012BB3370A9F45A3559F4809B5AD0819BB4
:1003000071D05527C39415E0C11611F4CA9456E470
:100310008099819B03C05AE5CC2402C05395882460
:10032000D03031F0002700001FEF0A95E1F718BB2D
:1003300018EC611238C0662436C00F9305E80DBD75
:100340000DEE0CBD0FB70F931F932F938A95082FB7
:100350000F7321F4839500E88027856043954C3323
:1003600011F54427A3950A2F0F700A30E1F4AA5F14
:10037000A036C9F4AA27733269F477274B2F4F7040
:100380000B2F02950F701AE0400F1A95E9F702E360
:10039000401B09C07395D03009F0DA95072F0F7014
:1003A0000A3009F47A5F2F911F910F910FBF0F91BF
:1003B00018959395913011F4C72F13C0923019F40A
:1003C0007C2FCA2F0EC0933019F4AC2FCB2F09C04D
:1003D000BC2F00270EBBBDBBE29AE19A44279927A8
:1003E00085E00895903021F4D030D0E009F4D8E0D1
:1003F000C3950C2F0F700A3021F4CA5FC03A09F47C
:10040000CC27913021F4C43241F4CC2706C092307D
:1004100021F4C03611F4CC2700C00895000000007C
:100420000000000000000A95C9F7089501B30B7F92
:1004300016F00460929801BB089528E011271695E4
:10044000F894E894F3DF03E0E9DF6894EFDF0AE073
:10045000E5DF829910687894E9DF0BE4DFDF2A9505
:1004600071F7089528E0F894E894E0DF05E010FFC4
:100470000AE5D4DF6894DADF78940AE510FF05E036
:10048000CDDF16952A9579F708956894CFDF0FEFA1
:10049000C5DF829B0895F894E894C8DF0EEBBEDFB9
:1004A0000EEBBCDF0EEBBADF6894C0DF04E6B6DF0C
:1004B00000B302FB78940AEFB1DF08950FED0DBF92
:1004C00008E701BB0FEF08BB07BB04E003BF04E074
:1004D0000EBD02E809BF00916100073341F40091AD
:1004E0006200023121F400916300053FB9F007E397
:1004F0000093610002E10093620005EF0093630046
:100500004427AA277727CC27DD2700270EBBE09AB0
:10051000BDB3BF3F09F4B0E5882491E0789400E8CA
:1005200008B927C0B2DF26F48FE311E020E029C02C
:100530001CEC98DF1EEB96DF80DF012F1F937DDF21
:10054000012F0F91029512950F70107F012B1BE068
:1005500007FD1AE01093640007FD019511270A308A
:1005600018F00A50105FFBCF010F0093600085FD6B
:100570008EE98BDFBEF21CEC75DF14E473DF1CE048
:1005800020E000E205BF88952A95D9F71A95C9F7AA
:10059000C9CFD781CECB995B5FC1DFDB08005600A6
:00000001FF
