:02000000CBC073
:100008009F7F79F40A2F102F0F70107F402E312E0A
:10001800072F102F0F70107F502E712E72946627A5
:100028000AC0792E0AE0502E0C2F102F0F70107F67
:10003800402E312E60E232940FEF08BB12B31778CE
:100048003395337031F46394072D00240011106444
:100058000CC0313019F4052D106207C0323019F484
:10006800032D106102C0042D1860609565FE1623EB
:100078006095F1E0E8EFE00F0027F01FC8950094C5
:1000880008BA12BB3370A9F45A3559F4809B4CD086
:10009800819B62D05527C39415E0C11611F4CA9408
:1000A80056E48099819B03C05AE5CC2402C053953D
:1000B8008824D03031F0002700001FEF0A95E1F7BF
:1000C80018BB18EC61122FC0662483940CE3081542
:1000D80029F4772311F4AA2309F0992743954C337F
:1000E80011F54427A3950A2F0F700A30E1F4AA5F8F
:1000F800A036C9F4AA27733269F477274B2F4F70BB
:100108000B2F02950F701AE0400F1A95E9F702E3DA
:10011800401B09C07395D03009F0DA95072F0F708E
:100128000A3009F47A5F18959395913011F4C72F26
:1001380012C0923019F47C2FCA2F0DC0933019F4D5
:10014800AC2FCB2F08C0BC2F00270EBBBDBBE29A3B
:10015800E19A442799270895903021F4D030D0E0CF
:1001680009F4D8E0C3950C2F0F700A3021F4CA5F48
:10017800C03A09F4CC27913021F4C43241F4CC2799
:1001880006C0923021F4C03611F4CC2700C008957F
:100198000FED0DBF08E701BB0FEF08BB07BB00E47D
:1001A80009BF0AE00EBD04E00BBD02EE0ABD07E37D
:1001B800A01631F402E1201619F405EF901689F023
:1001C80007E3A02E02E1202E05EF902E4427AA2750
:1001D8007727CC27DD2700270EBBE09ABDB38824FC
:1001E80091E0789400E808B900E205BF8895FCCF53
:0C01F800D781CECB995B5FC1DFDB080034
:00000001FF
